:020000040800F2
:1000000038080020290200084F1600087113000864
:100010004D1600081F040008651A000800000000C3
:10002000000000000000000000000000531600085F
:1000300021040008000000005116000855160008B1
:10004000430200084302000843020008430200087C
:10005000430200084302000843020008430200086C
:10006000430200084302000843020008430200085C
:10007000430200084302000843020008430200084C
:10008000430200084302000843020008430200083C
:10009000430200084302000843020008430200082C
:1000A000430200084302000843020008430200081C
:1000B000430200084302000843020008430200080C
:1000C00043020008430200084302000843020008FC
:1000D00043020008430200084302000843020008EC
:1000E00043020008430200084302000843020008DC
:1000F00043020008430200084302000843020008CC
:1001000043020008430200084302000843020008BB
:1001100043020008430200084302000843020008AB
:10012000430200084302000843020008430200089B
:10013000430200084302000843020008430200088B
:10014000430200084302000843020008430200087B
:10015000430200084302000843020008430200086B
:10016000430200084302000843020008430200085B
:100170004302000843020008430200080000000098
:10018000430200084302000800F002F800F03CF8C7
:100190000AA090E8000C82448344AAF10107DA45E2
:1001A00001D100F031F8AFF2090EBAE80F0013F0F8
:1001B000010F18BFFB1A43F0010318471419000080
:1001C00034190000103A24BF78C878C1FAD8520711
:1001D00024BF30C830C144BF04680C6070470000C1
:1001E0000023002400250026103A28BF78C1FBD840
:1001F000520728BF30C148BF0B6070471FB501F0E0
:1002000055FC1FBD10B510BD00F0CFF81146FFF72B
:10021000F5FF01F038FC00F0EDF803B4FFF7F2FF52
:1002200003BC00F0F5F80000094880470948004782
:10023000FEE7FEE7FEE7FEE7FEE7FEE7FEE7FEE796
:10024000FEE7FEE704480549054A064B70470000F3
:10025000ED16000889010008380200203808002047
:10026000380400203804002053EA020C00F06980B2
:100270002DE9F04B4FF00006002B1FBFB3FA83F5BA
:1002800003FA05F424FA05F65E4012BF1643B2FAEB
:1002900082F502FA05F4C5F120051EBF22FA05FC1D
:1002A00044EA0C04203556EA044C4FEA144418BFC3
:1002B000641C4FF000084FF00009904271EB030CF2
:1002C00039D3002919BFB1FA81F701FA07F6B0FA5C
:1002D00080F700FA07F6C7F120071EBF20FA07FCD7
:1002E00046EA0C062037B6FBF4FCA7EB0507103FE7
:1002F00007F01F0BCBF120060CFA0BFB2CFA06F6CD
:1003000044BFB3460026202FA4BF5E464FF0000B2B
:100310005BEA060C08BF4FF0010B19EB0B09ABFBB6
:10032000027C48EB0608C01B06FB02CC0BFB03CC8F
:1003300071EB0C01C1E70B46024641464846BDE859
:10034000F08B13B54FF000004FF00001AFF30080C9
:10035000BDE81C4070474FF0000200B513469446BC
:100360009646203922BFA0E80C50A0E80C50B1F10D
:100370002001BFF4F7AF090728BFA0E80C5048BF21
:100380000CC05DF804EB890028BF40F8042B08BFBF
:10039000704748BF20F8022B11F0804F18BF00F8BB
:1003A000012B7047704770477047754600F02CF876
:1003B000AE4605006946534620F00700854618B052
:1003C00020B5FFF73FFFBDE820404FF000064FF09B
:1003D00000074FF000084FF0000B21F00701AC467A
:1003E000ACE8C009ACE8C009ACE8C009ACE8C00999
:1003F0008D46704710B50446AFF300802046BDE837
:100400001040FFF70ABF000000487047D8010020E5
:1004100001491820ABBEFEE7260002007047FEE748
:10042000704772B6FEE700002DE9F84FDFF8BCA177
:100430000022012503264FF00F090AF1040BAAF14F
:10044000040E00BF0B6805FA02F42340A34270D1EA
:100450000F7907F00307012F01D0022F16D187680B
:100460004FEA420806FA08FC27EA0C07D1F80CC04C
:100470000CFA08FC4CEA070CC0F808C04768A74310
:100480000C79C4F3001494403C4344600C79E44379
:10049000A4070AD0C4684FEA420C06FA0CF7BC4322
:1004A0008F6807FA0CF72743C7600C7904F0030440
:1004B000022C12D1D40800EB840CDCF82040570742
:1004C000FF0E09FA07F824EA0804D1F8108008FAA8
:1004D00007F848EA0408CCF8208004684FEA420C88
:1004E00006FA0CF7BC430F7907F0030707FA0CF77D
:1004F000274307604C6814F4403F70D03C4C276899
:1005000047F480472760246822F0030704F48044FE
:100510000094384C07EB040CDCF8084897074FEAC6
:10052000177809FA08F7BC43334FB84202D10027C5
:1005300024E054E0314FB84201D101271EE0304F92
:10054000B84201D1022719E02E4FB84201D103274A
:1005500014E02D4FB84201D104270FE02B4FB842D1
:1005600001D105270AE02A4FB84201D1062705E04C
:10057000284FB84201D1072700E0082707FA08F7FB
:100580002743CCF80878DAF800405746D1F804C081
:100590009C435FEACC2C00D51C433C60DBF8004058
:1005A0005F46D1F804C09C435FEA8C2C00D51C4305
:1005B0003C60DEF800407746D1F804C09C435FEA17
:1005C0008C3C00D51C433C60084F083F3C68D1F888
:1005D00004C09C435FEACC3C00D51C433C60521CE9
:1005E000102AFFF42FAFBDE8F88F0000083C01404F
:1005F0004438024000300140000002400004024044
:1006000000080240000C02400010024000140240AA
:1006100000180240001C024001488068704700003A
:100620000000002070B5040025D094F83D0000259E
:1006300020B984F83C50204600F0B8F8242084F813
:100640003D002068016821F0010101602068016817
:1006500041F4004101602068016821F4004101601B
:1006600000F01CFA4D4A6168914201D84C4900E003
:100670004C49884201D2012070BD4B492368B0FB30
:10068000F1F15E6826F03F060E435E6063689342B8
:1006900006D94FF4967359434FF47A73B1FBF3F1D3
:1006A0002368491C1E6A26F03F06314319626168BF
:1006B000914210D84900401EB0FBF1F2521CC2F327
:1006C0000B02042A01D2042022E0B0FBF1F0401C0E
:1006D000C0F30B001CE0A268F2B301EBC10303EB13
:1006E0000116431EB3FBF6F35B1C43F480431B056A
:1006F00049D092B301EBC10202EB0111401EB0FBE5
:10070000F1F0401CC0F30B0040F4804040F4004086
:100710002168CA694CF6FF739A431043C861D4E953
:10072000071001432068026822F0C00211430160F3
:10073000D4E9030101432068826848F2FF339A43F9
:1007400011438160D4E9050108432168CA6822F099
:10075000FF021043C86001E00EE016E02068016867
:1007600041F0010101602564202084F83D002563EB
:1007700084F83E50002070BD01EB4106431EB3FBE0
:10078000F6F35B1CB3E70120C2E701EB4101401E19
:10079000B0FBF1F0401CC0F30B00B7E7A0860100EE
:1007A00080841E0000093D0040420F00F0B587B074
:1007B000044614216846FFF7CEFD2668204C1F4FE3
:1007C00000251F481222032104231034BE4218D1F1
:1007D000066846F002060660006800F00200059018
:1007E000CDE90313C0208DE8250069461548FFF7C1
:1007F0001BFE206840F400102060206800F4001008
:1008000019E0114FBE4217D1066846F02006066077
:10081000006800F0200005908DE82600CDE9031364
:1008200069460A48FFF700FE206840F48000206017
:10083000206800F48000059007B0F0BD005400402F
:1008400030380240000402400058004000140240CA
:1008500002488168027811448160704700000020DE
:100860000B4810B5016841F400710160016841F462
:1008700080610160016841F480710160032000F033
:1008800061F80F2000F006F800F024F8002010BDF9
:10089000003C024070B50D4D04464FF47A71287843
:1008A000B1FBF0F00A490968B1FBF0F000F0FEFA84
:1008B00048B9102C07D200222146501E00F022F821
:1008C00000206C6070BD012070BD000000000020A1
:1008D0000C0000200A4808B5016841F4804101601D
:1008E000006800F4804000900548001F016841F056
:1008F00080510160006800F08050009008BD000049
:1009000044380240F0B40E4B1B680C46C3F302237C
:10091000C3F10705042D00D90425191D072901D2AB
:10092000002300E0DB1E012606FA05F1491E2140E6
:1009300099409E40761E16403143F0BC01F093B8BA
:100940000CED00E0064900F0070208684FF6FF03CF
:10095000184040EA0220034A104308607047000034
:100960000CED00E00000FA052DE9F0470E46050009
:1009700065D0DFF81481D8F80000F7B200F0070066
:10098000B04207D288F80070D8F8000000F00700E5
:10099000B04254D128683D4C810712D5400703D599
:1009A000206840F4E05020602878000703D52068D4
:1009B00040F4604020602068A96820F0F0000843FF
:1009C00020602878C0072DD0304968680839012890
:1009D00012D0022813D0032811D0096889070029F2
:1009E0002DDA216821F0030101432160FFF714FE95
:1009F000814641F2883A0EE009688903EFE7096809
:100A00008901ECE7FFF708FEA0EB0901514502D987
:100A10000320BDE8F0872068696800F00C00B0EBA7
:100A2000810FEFD1D8F80010404601F00701B14224
:100A300007D90770006800F00700B04201D001201C
:100A4000E7E72878400705D52068E96820F4E050FA
:100A5000084320602878000706D52068296920F41B
:100A6000604040EAC100206000F038F82168084A80
:100A7000C1F30311515CC84006490860064800688C
:100A8000FFF708FF0020C4E7003C0240083802409E
:100A9000B61A00080C000020040000200448054994
:100AA00000680968044AC1F38221515CC84070475C
:100AB0000C00002008380240C61A00080448054906
:100AC00000680968044AC1F34231515CC84070476C
:100AD0000C00002008380240C61A0008154810B55E
:100AE000006810F00C02144813D01449042A0FD0E7
:100AF000082A0ED10F4C241F2268236802F03F02FF
:100B00005B0207D52068C0F38810A0FB010106E056
:100B1000084610BD2168C1F38811A1FB0001002324
:100B2000FFF7A2FB2168C1F30141491C4900B0FB5A
:100B3000F1F010BD083802400024F40040787D0137
:100B40002DE9F84F04006ED02078DFF84C93C007F1
:100B5000A9F104054AD009F104000168C1F381013B
:100B6000012908D00068C0F3810002280AD1D9F811
:100B70000000400206D52868800337D56068002849
:100B8000E1D033E06068B0F5803F10D0B0F5A02F21
:100B9000286810D020F480302860286820F4802055
:100BA00028606068A8B1FFF737FD06460DE02868A9
:100BB00040F48030F4E740F480202860F7E700BF7D
:100BC000FFF72AFD801B642873D828688003F7D5B7
:100BD0000CE0FFF721FD064605E000BFFFF71CFD16
:100BE000801B6428F0D828688003F7D42078DFF8C9
:100BF000AC8280074FF0000A3ED5A748001D01686F
:100C000011F00C0F08D00068C0F3810002280BD14E
:100C1000D9F80000400207D42868800716D5E0689C
:100C2000012800D112E033E1E068B8B10120C8F832
:100C30000000FFF7F1FC064605E000BFFFF7ECFC03
:100C4000801B0228C0D828688007F7D5286821694A
:100C500020F0F80040EAC10028600DE0C8F800A0CC
:100C6000FFF7DAFC064604E0FFF7D6FC801B0228FB
:100C70001FD828688007F7D42078000722D5864F30
:100C800087486169703771B101210160FFF7C4FCC9
:100C9000064604E0FFF7C0FC801B022809D838682C
:100CA0008007F7D50EE0C0F800A0FFF7B5FC0646B8
:100CB00005E082E0FFF7B0FC801B02287DD8386891
:100CC0008007F7D42078400768D5DFF8CCB100273B
:100CD0000BF13C0BDBF80000C0000BD4DBF800107C
:100CE00041F08051CBF80010DBF80000012700F044
:100CF000805000906B4E3068C00510D4306840F4CE
:100D000080703060FFF788FC009005E0FFF784FCFE
:100D10000099401A022850D83068C005F6D55E4EBA
:100D2000A0686C3601280FD00528306810D020F05C
:100D300001003060306820F004003060A068B8B175
:100D4000FFF76AFC00900FE0306840F00100F4E724
:100D500040F004003060F7E7FFF75EFC0099411AAD
:100D600041F28830814266D830688007F4D50EE0C1
:100D7000FFF752FC009007E0FFF74EFC0099411A84
:100D800041F28830814256D830688007F4D42FB1C0
:100D9000DBF8001021F08051CBF80010A069C8B337
:100DA0003D49091D0968C1F3810102294AD0022881
:100DB000504607D0C8F8600000E03CE0FFF72CFC8C
:100DC00004463BE04746C8F86000FFF725FC0646AE
:100DD00005E000BFFFF720FC801B02282BD8286805
:100DE0008001F7D4D4E907010843A16A2E4A4908D3
:100DF00002EB0141626A41EA8211084394F82C1027
:100E000040EA0161C9F8001001203866FFF704FCD0
:100E1000044606E03EE000BFFFF7FEFB001B022891
:100E200009D828688001F7D534E000BFFFF7F4FB4C
:100E3000001B022802D90320BDE8F88F2868800132
:100E4000F4D427E00128F7D0D9F80000E26900F4D3
:100E5000800191421CD1226A00F03F01914217D1DA
:100E600047F6C071626A0140B1EB821F10D1A26ADD
:100E70004FF0FF3300F4403103EB5202B1EB024F6D
:100E800006D194F82C1000F07060B0EB016F01D027
:100E90000120D1E70020CFE704380240000047429C
:100EA000800E4742007000400000FFFF10B5401E5A
:100EB000B0F1807F01D3012010BD4FF0E0246061CC
:100EC0000F21601700F0CFFD0020A06107202061F6
:100ED000002010BD10B590F83C20012A22D001223C
:100EE00080F83C20CA688C6822F4407222434C6827
:100EF00022F4806222430C6822F4006222430C69CF
:100F000022F4805222434C6922F400522243C969E0
:100F1000002322F480420A4301684A6480F83C308E
:100F2000002010BD022010BD70B590F83C20012AB1
:100F300032D0012480F83C40022280F83D20036832
:100F40005A689D6822F070060A6832435A60134B53
:100F500002689A4214D0B2F1804F11D0104B9A42DD
:100F60000ED0104B9A420BD00F4B9A4208D00F4B29
:100F70009A4205D00E4B9A4202D00E4B9A4204D1AF
:100F8000496825F080031943916080F83D400021B5
:100F900080F83C10084670BD022070BD0000014082
:100FA0000004004000080040000C00400004014024
:100FB00000400140001800402DE9F0410D460400BA
:100FC00003D094F83D0018B108E00120BDE8F0819D
:100FD000002084F83C00204600F040F8022084F80D
:100FE0003D002068816844F2070291438160211D21
:100FF000206800F083FB226890689169166A2B686C
:10100000AF69034340F20330814341EA0721A868F6
:10101000EF6908434FF6FC418843E96840EA07203E
:10102000014328692F6A000140EA073008436968D4
:101030006D6926F0AA0646EA0515294393602268E1
:10104000906154F8460B0162012004F81F09E07515
:101050002076E0762077A0750020B7E770B586B0DF
:10106000044614216846FFF776F9214A25680023D3
:101070001F49103A02241F48B5F1804F1ED01E4E62
:10108000B54219D10D6845F002050D60096801F0FF
:1010900002010591116841F001011160116801F030
:1010A00001010591C0210091CDE90143CDE903344F
:1010B000694600BFFFF7B8F906B070BD0D6845F08E
:1010C00001050D60096801F001010591116841F009
:1010D00001011160116801F00101059103210091E6
:1010E000CDE901430121CDE903316946E2E7000082
:1010F00040380240000002400004004010B586B0B5
:10110000044614216846FFF726F90E4920688842F4
:1011100016D10D480021026842F0100202600068FA
:1011200000F0100005904FF4206000900220CDE9FF
:1011300001010120CDE9031069460448FFF774F965
:1011400006B010BD000001403038024000100240DF
:1011500070B5044690F83C0000260D4601280FD0DB
:10116000012084F83C006AB1042A1DD0082A2FD03F
:101170000C2A3FD00126002084F83C00304670BD88
:10118000022070BD206800F025FB2068816941F0D5
:10119000080181612068816921F004018161206872
:1011A00081692A69114311E0206800F043FB20683F
:1011B000816941F4006181612068816921F4806165
:1011C0008161206881692A6941EA02218161D2E74F
:1011D000206800F065FB2068C16941F00801C16129
:1011E0002068C16921F00401C1612068C1692A69D0
:1011F000114311E0206800F087FB2068C16941F4C9
:101200000061C1612068C16921F48061C161206809
:10121000C1692A6941EA0221C161ACE710B5040045
:1012200003D094F83D0010B107E0012010BD00206C
:1012300084F83C00204600F01FF8022084F83D00AE
:10124000211D206800F05AFA012084F8460084F835
:101250003E0084F83F0084F8400084F8410084F8A0
:10126000420084F8430084F8440084F8450084F880
:101270003D00002010BD000008B500680649884206
:1012800008D10648016841F001010160006800F0E2
:101290000100009008BD00000000014044380240F9
:1012A00070B5040004D094F84100002510B106E0A8
:1012B000012070BD84F84050204600F023F824201F
:1012C00084F841002068C16821F40051C1602046C3
:1012D00000F042FB2068016921F49041016120681F
:1012E000416921F02A0141612068C16841F400513F
:1012F000C1606564202084F8410084F84200656381
:10130000002070BD10B586B0044614216846FFF772
:1013100022F814492068884221D11348002102682C
:1013200042F010020260006800F0100005900E48C4
:101330001438026842F001020260006800F0010007
:1013400005904FF4C06000900220CDE90101032018
:1013500003900720049069460448FFF765F806B03B
:1013600010BD00000010014044380240000002405F
:10137000FEE7000010B586B014216846FEF7EBFFCB
:1013800021480024016841F010010160016801F06A
:1013900010010591016841F004010160016801F04C
:1013A00004010591016841F020010160016801F02C
:1013B00020010591016841F080010160016801F0A0
:1013C00080010591016841F001010160016801F0AF
:1013D00001010591016841F0020101600068694660
:1013E00000F002000590FF20CDE9000407480294B8
:1013F000FFF71AF83C20CDE900046946044802943E
:10140000FFF712F806B010BD30380240001002405D
:10141000001402400D4810B50B4901600C494160B1
:1014200000214FF480428160C0E903124161816173
:10143000C1610162FFF7F6F8002803D0BDE8104053
:10144000FEF7EFBF10BD0000005400401000002068
:10145000A08601000D4810B50B4901600C494160A0
:1014600000214FF480428160C0E903124161816133
:10147000C1610162FFF7D6F8002803D0BDE8104033
:10148000FEF7CFBF10BD00000058004064000020F0
:10149000A086010010B592B000240F941C2168466C
:1014A0001094FEF758FF202107A8FEF754FF2448A8
:1014B0002249C0E900144FF6FF71C0E902410461FE
:1014C00044618461FFF7AAFE08B1FEF7AAFF0F94FA
:1014D0000FA91B481094FFF727FD08B1FEF7A1FFE5
:1014E0006020CDE900040294039404940594002242
:1014F000694613480694FFF72BFE08B1FEF791FFEB
:10150000042269460E48FFF723FE08B1FEF789FF63
:101510000794089409944FF400500A94CDE90B40C5
:1015200007A907480E94FFF7D5FC08B1FEF779FF2D
:101530000348FFF7E3FD12B010BD000000000140BA
:10154000B800002010B58CB024216846FEF703FFD8
:101550000024154809944FF080410A94C0E9001412
:10156000611EC0E90241046184610320CDE90004E9
:101570000120CDE902040494CDE9054007946946B1
:1015800009480894FFF718FD08B1FEF74AFF0994CF
:1015900009A905480A94FFF7C7FC002801D0FEF707
:1015A00040FF0CB010BD00000001002010B58CB051
:1015B00024216846FEF7CFFE0024154809941349FC
:1015C0000A94C0E900144FF6FF71C0E902410461BA
:1015D00084610120CDE90004CDE902040494CDE941
:1015E0000540079469460A480894FFF7E5FC08B1EE
:1015F000FEF717FF099409A905480A94FFF794FC20
:10160000002801D0FEF70DFF0CB010BD0004004013
:10161000480100200C4810B50A4901604FF4E1313F
:101620004160002181600C22C160C0E90412816127
:10163000C161FFF735FE002803D0BDE81040FEF77A
:10164000F0BE10BD0010014090010020FEE7FEE753
:1016500070477047FFF7FCB830B593B0302168464B
:10166000FEF779FE14210CA8FEF775FE1D48002533
:10167000016841F080510160006800F080501190D5
:101680001948016841F4804101600068022400F4B7
:101690008040119001200390102004900094069443
:1016A0000820CDE90750A820CDE9090404200B90BB
:1016B0006846FFF745FA08B172B6FEE70CA90F209D
:1016C00081E831004FF4A0500F904FF480501090FB
:1016D00005210CA8FFF748F9002801D072B6FEE7F3
:1016E00013B030BD4038024000700040024801682D
:1016F00041F470010160704788ED00E0F0B50268C8
:10170000294C2A4D2A4E2B4F2B4B4FF0804CA04298
:1017100009D0604507D0A84205D0B04203D0B842F6
:1017200001D0984204D122F0700E4A6842EA0E02BB
:10173000A0421BD0604519D0A84217D0B04215D0A6
:10174000B84213D0984211D01C4DA8420ED01C4D67
:10175000A8420BD01B4DA84208D01B4DA84205D073
:101760001A4DA84202D01A4DA84203D122F4407566
:10177000CA682A434D6922F080022A4302608A68BF
:10178000C2620A688262A04201D0984201D109690E
:101790000163012141610169C90703D0016921F099
:1017A00001010161F0BD00000000014000040040A3
:1017B00000080040000C00400004014000400140CF
:1017C000004401400048014000180040001C004057
:1017D00000200040F0B5036A026A22F001020262B2
:1017E00042688469124E24F073050C682C4323F080
:1017F00002058B682B430D4DA84201D0B04205D1A4
:1018000023F00807CB683B4323F00403A84201D030
:10181000B04205D14D6922F4407215438A692A43CA
:1018200042608461496841630362F0BD0000014089
:1018300000040140F0B5026A036A23F0100303625A
:10184000436884690D6824F4E64444EA05248D68FD
:1018500022F0200242EA05120F4D104EA84201D09C
:10186000B04206D1CF6822F0800242EA071222F08D
:101870004002A84201D0B04207D14D6923F4406331
:1018800043EA85038D6943EA8503436084614968BF
:1018900081630262F0BD00000000014000040140CD
:1018A000F0B5026A036A23F4807303624368C46973
:1018B00022F4007224F073050C68124E2C438D68DC
:1018C00042EA05220E4DA84201D0B04206D1CF68AF
:1018D00022F4006242EA072222F48062A84201D088
:1018E000B04207D14D6923F4405343EA05138D6993
:1018F00043EA05134360C4614968C1630262F0BDF5
:10190000000001400004014030B5046A026A22F47C
:10191000805202624268C3690D6823F4E64343EAD9
:1019200005238D6824F4005444EA0534084DA84288
:1019300002D0084DA84204D14D6922F4804242EA07
:1019400085124260C36149680164046230BD0000D1
:10195000000001400004014070B5044600680169C0
:10196000E26821F44051114301612169A068E269F4
:1019700008436169114308432168CA6849F20C634E
:101980009A430243CA6020684169A26921F4407108
:101990001143416131492068884202D03049884270
:1019A00002D1FFF78BF801E0FFF778F8E269002336
:1019B000192164253226B2F5004F626828D0A0FBB9
:1019C0000101930F9200FEF74FFC0146B0FBF5F0CA
:1019D0006FF01802504301EB800006EB0010B0FBE3
:1019E000F5F000F0F002B1FBF5F002EB0012B1FBF4
:1019F000F5F06FF01803584301EB800006EB001080
:101A0000B0FBF5F000F00F0021681044886070BD55
:101A1000A0FB010192185B41FEF726FC0146B0FBDA
:101A2000F5F00201B1FBF5F06FF01803584301EB3C
:101A3000800006EBC000B0FBF5F000F0F80002EB10
:101A40004002B1FBF5F0584301EB800006EBC0000B
:101A5000B0FBF5F000F00700D6E7000000100140F1
:101A600000140140FEE70907090E002804DB00F11D
:101A7000E02080F80014704700F00F0000F1E02033
:101A800080F8141D7047FEF7EBFEFFF7E5FDFFF74A
:101A900071FCFFF7BFFCFFF7DDFCFFF7FBFCFFF776
:101AA00051FDFFF783FDFFF7B5FDFEE74FF04070F6
:101AB000E1EE100A70470000000000000000010283
:101AC00003040607080900000000010203040000E7
:101AD000F01A00080000002010000000C4010008F7
:101AE000001B00081000002028080000E00100088A
:101AF0000100000010000000000000000024F400BD
:040000050800018965
:00000001FF
